{
  "transactions": [
    {
      "hash": "0x74260b853f744625e4735458a7b1f3bb92ebdf6491268d9a48f9fa41fc278701",
      "transactionType": "CALL",
      "contractName": null,
      "contractAddress": "0x332d08269e525a77f12f71db714cb91985ea457a",
      "function": "registerAgent(bytes32,address,bytes32,string)",
      "arguments": [
        "0xbc3638246575733a9e87a4177a177912dc1c014a38df96f8238c2c4091b26468",
        "0xC557BBc3351B1CcbbDa556b8001736beb28A7A0B",
        "0x0000000000000000000000000000000000000000000000000000000000000000",
        "Axiom-7"
      ],
      "transaction": {
        "from": "0xe20d41e77bf1d2121e4bc50411e4523300b72b9a",
        "to": "0x332d08269e525a77f12f71db714cb91985ea457a",
        "gas": "0x2d45e",
        "value": "0x0",
        "input": "0x28c570c2bc3638246575733a9e87a4177a177912dc1c014a38df96f8238c2c4091b26468000000000000000000000000c557bbc3351b1ccbbda556b8001736beb28a7a0b0000000000000000000000000000000000000000000000000000000000000000000000000000000000000000000000000000000000000000000000000000008000000000000000000000000000000000000000000000000000000000000000074178696f6d2d3700000000000000000000000000000000000000000000000000",
        "nonce": "0x4",
        "chainId": "0x138b"
      },
      "additionalContracts": [],
      "isFixedGasLimit": false
    }
  ],
  "receipts": [
    {
      "status": "0x1",
      "cumulativeGasUsed": "0x2dd8c",
      "logs": [
        {
          "address": "0x332d08269e525a77f12f71db714cb91985ea457a",
          "topics": [
            "0x186c9e760261cf9d36dfc9a09ca598dbff789d7d4201868118b92d46e56dac80",
            "0xbc3638246575733a9e87a4177a177912dc1c014a38df96f8238c2c4091b26468"
          ],
          "data": "0x000000000000000000000000c557bbc3351b1ccbbda556b8001736beb28a7a0b000000000000000000000000000000000000000000000000000000000000004000000000000000000000000000000000000000000000000000000000000000074178696f6d2d3700000000000000000000000000000000000000000000000000",
          "blockHash": "0x5698e4b0c26c9043b2c8ab8911e2f8eb18267b264f5090bbf907b2f5a8f2d6c1",
          "blockNumber": "0x25c41e9",
          "blockTimestamp": "0x6a2406b3",
          "transactionHash": "0x74260b853f744625e4735458a7b1f3bb92ebdf6491268d9a48f9fa41fc278701",
          "transactionIndex": "0x1",
          "logIndex": "0x0",
          "removed": false
        }
      ],
      "logsBloom": "0x00008000000000000000000000000000000000000000000000000000000000000000000000000000000000000000000000000000000000000000000000000000000000000000000000000000000000000000000800000000000000000000000000000000000000000000004000002000000000000000000000000000000000000000000000000000000000000000000000000000000000000000000000000000000000000000000000000000000000000000008010000000000000000000000000000000000200000000000000000000000000000000000000000000000000000000000000000000000000000000000000400000000000000020000000000000",
      "type": "0x2",
      "transactionHash": "0x74260b853f744625e4735458a7b1f3bb92ebdf6491268d9a48f9fa41fc278701",
      "transactionIndex": "0x1",
      "blockHash": "0x5698e4b0c26c9043b2c8ab8911e2f8eb18267b264f5090bbf907b2f5a8f2d6c1",
      "blockNumber": "0x25c41e9",
      "gasUsed": "0x228bd",
      "effectiveGasPrice": "0xba43b7401",
      "blobGasUsed": "0xc350",
      "from": "0xe20d41e77bf1d2121e4bc50411e4523300b72b9a",
      "to": "0x332d08269e525a77f12f71db714cb91985ea457a",
      "contractAddress": null,
      "daFootprintGasScalar": "0x190",
      "l1BaseFeeScalar": "0x2943b",
      "l1BlobBaseFee": "0x809a8d1",
      "l1BlobBaseFeeScalar": "0x45567c",
      "l1Fee": "0x8bf5390cafa1a",
      "l1GasPrice": "0x81c2d926",
      "l1GasUsed": "0x7d8",
      "operatorFeeConstant": "0x0",
      "operatorFeeScalar": "0x5f5e100",
      "tokenRatio": "0xbc9"
    }
  ],
  "libraries": [],
  "pending": [],
  "returns": {},
  "timestamp": 1780745907113,
  "chain": 5003,
  "commit": "c04dbf0"
}